{
  "_format": "hh-sol-artifact-1",
  "contractName": "IWasThereChronicles",
  "sourceName": "contracts/IWasThereChronicles.sol",
  "abi": [
    {
      "inputs": [
        {
          "internalType": "address",
          "name": "_usdcAddress",
          "type": "address"
        },
        {
          "internalType": "address",
          "name": "initialOwner",
          "type": "address"
        }
      ],
      "stateMutability": "nonpayable",
      "type": "constructor"
    },
    {
      "anonymous": false,
      "inputs": [
        {
          "indexed": true,
          "internalType": "address",
          "name": "owner",
          "type": "address"
        },
        {
          "indexed": true,
          "internalType": "address",
          "name": "approved",
          "type": "address"
        },
        {
          "indexed": true,
          "internalType": "uint256",
          "name": "tokenId",
          "type": "uint256"
        }
      ],
      "name": "Approval",
      "type": "event"
    },
    {
      "anonymous": false,
      "inputs": [
        {
          "indexed": true,
          "internalType": "address",
          "name": "owner",
          "type": "address"
        },
        {
          "indexed": true,
          "internalType": "address",
          "name": "operator",
          "type": "address"
        },
        {
          "indexed": false,
          "internalType": "bool",
          "name": "approved",
          "type": "bool"
        }
      ],
      "name": "ApprovalForAll",
      "type": "event"
    },
    {
      "anonymous": false,
      "inputs": [
        {
          "indexed": false,
          "internalType": "uint256",
          "name": "_fromTokenId",
          "type": "uint256"
        },
        {
          "indexed": false,
          "internalType": "uint256",
          "name": "_toTokenId",
          "type": "uint256"
        }
      ],
      "name": "BatchMetadataUpdate",
      "type": "event"
    },
    {
      "anonymous": false,
      "inputs": [
        {
          "indexed": false,
          "internalType": "uint256",
          "name": "_tokenId",
          "type": "uint256"
        }
      ],
      "name": "MetadataUpdate",
      "type": "event"
    },
    {
      "anonymous": false,
      "inputs": [
        {
          "indexed": true,
          "internalType": "address",
          "name": "previousOwner",
          "type": "address"
        },
        {
          "indexed": true,
          "internalType": "address",
          "name": "newOwner",
          "type": "address"
        }
      ],
      "name": "OwnershipTransferred",
      "type": "event"
    },
    {
      "anonymous": false,
      "inputs": [
        {
          "indexed": true,
          "internalType": "address",
          "name": "from",
          "type": "address"
        },
        {
          "indexed": true,
          "internalType": "address",
          "name": "to",
          "type": "address"
        },
        {
          "indexed": true,
          "internalType": "uint256",
          "name": "tokenId",
          "type": "uint256"
        }
      ],
      "name": "Transfer",
      "type": "event"
    },
    {
      "inputs": [],
      "name": "CREDIT_PACKAGE_PRICE",
      "outputs": [
        {
          "internalType": "uint256",
          "name": "",
          "type": "uint256"
        }
      ],
      "stateMutability": "view",
      "type": "function"
    },
    {
      "inputs": [],
      "name": "FREE_PHOTOS_AMOUNT",
      "outputs": [
        {
          "internalType": "uint256",
          "name": "",
          "type": "uint256"
        }
      ],
      "stateMutability": "view",
      "type": "function"
    },
    {
      "inputs": [],
      "name": "FREE_VIDEOS_AMOUNT",
      "outputs": [
        {
          "internalType": "uint256",
          "name": "",
          "type": "uint256"
        }
      ],
      "stateMutability": "view",
      "type": "function"
    },
    {
      "inputs": [
        {
          "internalType": "address",
          "name": "to",
          "type": "address"
        },
        {
          "internalType": "uint256",
          "name": "tokenId",
          "type": "uint256"
        }
      ],
      "name": "approve",
      "outputs": [],
      "stateMutability": "nonpayable",
      "type": "function"
    },
    {
      "inputs": [
        {
          "internalType": "address",
          "name": "owner",
          "type": "address"
        }
      ],
      "name": "balanceOf",
      "outputs": [
        {
          "internalType": "uint256",
          "name": "",
          "type": "uint256"
        }
      ],
      "stateMutability": "view",
      "type": "function"
    },
    {
      "inputs": [],
      "name": "claimFreePackage",
      "outputs": [],
      "stateMutability": "nonpayable",
      "type": "function"
    },
    {
      "inputs": [
        {
          "internalType": "uint256",
          "name": "tokenId",
          "type": "uint256"
        }
      ],
      "name": "getApproved",
      "outputs": [
        {
          "internalType": "address",
          "name": "",
          "type": "address"
        }
      ],
      "stateMutability": "view",
      "type": "function"
    },
    {
      "inputs": [
        {
          "internalType": "address",
          "name": "",
          "type": "address"
        }
      ],
      "name": "hasClaimedFreePackage",
      "outputs": [
        {
          "internalType": "bool",
          "name": "",
          "type": "bool"
        }
      ],
      "stateMutability": "view",
      "type": "function"
    },
    {
      "inputs": [
        {
          "internalType": "address",
          "name": "owner",
          "type": "address"
        },
        {
          "internalType": "address",
          "name": "operator",
          "type": "address"
        }
      ],
      "name": "isApprovedForAll",
      "outputs": [
        {
          "internalType": "bool",
          "name": "",
          "type": "bool"
        }
      ],
      "stateMutability": "view",
      "type": "function"
    },
    {
      "inputs": [
        {
          "internalType": "string",
          "name": "_tokenURI",
          "type": "string"
        }
      ],
      "name": "mintPhoto",
      "outputs": [],
      "stateMutability": "nonpayable",
      "type": "function"
    },
    {
      "inputs": [
        {
          "internalType": "string",
          "name": "_tokenURI",
          "type": "string"
        }
      ],
      "name": "mintVideo",
      "outputs": [],
      "stateMutability": "nonpayable",
      "type": "function"
    },
    {
      "inputs": [],
      "name": "name",
      "outputs": [
        {
          "internalType": "string",
          "name": "",
          "type": "string"
        }
      ],
      "stateMutability": "view",
      "type": "function"
    },
    {
      "inputs": [],
      "name": "owner",
      "outputs": [
        {
          "internalType": "address",
          "name": "",
          "type": "address"
        }
      ],
      "stateMutability": "view",
      "type": "function"
    },
    {
      "inputs": [
        {
          "internalType": "uint256",
          "name": "tokenId",
          "type": "uint256"
        }
      ],
      "name": "ownerOf",
      "outputs": [
        {
          "internalType": "address",
          "name": "",
          "type": "address"
        }
      ],
      "stateMutability": "view",
      "type": "function"
    },
    {
      "inputs": [
        {
          "internalType": "address",
          "name": "",
          "type": "address"
        }
      ],
      "name": "photoCredits",
      "outputs": [
        {
          "internalType": "uint256",
          "name": "",
          "type": "uint256"
        }
      ],
      "stateMutability": "view",
      "type": "function"
    },
    {
      "inputs": [],
      "name": "purchaseCreditPackage",
      "outputs": [],
      "stateMutability": "nonpayable",
      "type": "function"
    },
    {
      "inputs": [],
      "name": "renounceOwnership",
      "outputs": [],
      "stateMutability": "nonpayable",
      "type": "function"
    },
    {
      "inputs": [
        {
          "internalType": "address",
          "name": "from",
          "type": "address"
        },
        {
          "internalType": "address",
          "name": "to",
          "type": "address"
        },
        {
          "internalType": "uint256",
          "name": "tokenId",
          "type": "uint256"
        }
      ],
      "name": "safeTransferFrom",
      "outputs": [],
      "stateMutability": "nonpayable",
      "type": "function"
    },
    {
      "inputs": [
        {
          "internalType": "address",
          "name": "from",
          "type": "address"
        },
        {
          "internalType": "address",
          "name": "to",
          "type": "address"
        },
        {
          "internalType": "uint256",
          "name": "tokenId",
          "type": "uint256"
        },
        {
          "internalType": "bytes",
          "name": "data",
          "type": "bytes"
        }
      ],
      "name": "safeTransferFrom",
      "outputs": [],
      "stateMutability": "nonpayable",
      "type": "function"
    },
    {
      "inputs": [
        {
          "internalType": "address",
          "name": "operator",
          "type": "address"
        },
        {
          "internalType": "bool",
          "name": "approved",
          "type": "bool"
        }
      ],
      "name": "setApprovalForAll",
      "outputs": [],
      "stateMutability": "nonpayable",
      "type": "function"
    },
    {
      "inputs": [
        {
          "internalType": "bytes4",
          "name": "interfaceId",
          "type": "bytes4"
        }
      ],
      "name": "supportsInterface",
      "outputs": [
        {
          "internalType": "bool",
          "name": "",
          "type": "bool"
        }
      ],
      "stateMutability": "view",
      "type": "function"
    },
    {
      "inputs": [],
      "name": "symbol",
      "outputs": [
        {
          "internalType": "string",
          "name": "",
          "type": "string"
        }
      ],
      "stateMutability": "view",
      "type": "function"
    },
    {
      "inputs": [
        {
          "internalType": "uint256",
          "name": "tokenId",
          "type": "uint256"
        }
      ],
      "name": "tokenURI",
      "outputs": [
        {
          "internalType": "string",
          "name": "",
          "type": "string"
        }
      ],
      "stateMutability": "view",
      "type": "function"
    },
    {
      "inputs": [
        {
          "internalType": "address",
          "name": "from",
          "type": "address"
        },
        {
          "internalType": "address",
          "name": "to",
          "type": "address"
        },
        {
          "internalType": "uint256",
          "name": "tokenId",
          "type": "uint256"
        }
      ],
      "name": "transferFrom",
      "outputs": [],
      "stateMutability": "nonpayable",
      "type": "function"
    },
    {
      "inputs": [
        {
          "internalType": "address",
          "name": "newOwner",
          "type": "address"
        }
      ],
      "name": "transferOwnership",
      "outputs": [],
      "stateMutability": "nonpayable",
      "type": "function"
    },
    {
      "inputs": [],
      "name": "usdcToken",
      "outputs": [
        {
          "internalType": "contract IERC20",
          "name": "",
          "type": "address"
        }
      ],
      "stateMutability": "view",
      "type": "function"
    },
    {
      "inputs": [
        {
          "internalType": "address",
          "name": "",
          "type": "address"
        }
      ],
      "name": "videoCredits",
      "outputs": [
        {
          "internalType": "uint256",
          "name": "",
          "type": "uint256"
        }
      ],
      "stateMutability": "view",
      "type": "function"
    },
    {
      "inputs": [],
      "name": "withdrawUSDC",
      "outputs": [],
      "stateMutability": "nonpayable",
      "type": "function"
    }
  ],
  "bytecode": "0x60a06040523480156200001157600080fd5b50604051620021fa380380620021fa833981016040819052620000349162000156565b6040518060400160405280601581526020017f4920576173205468657265204368726f6e69636c650000000000000000000000815250604051806040016040528060038152602001621255d560ea1b815250816000908162000097919062000233565b506001620000a6828262000233565b505050620000c3620000bd620000e360201b60201c565b620000e7565b6001600160a01b038216608052620000db81620000e7565b5050620002ff565b3390565b600780546001600160a01b038381166001600160a01b0319831681179093556040519116919082907f8be0079c531659141344cd1fd0a4f28419497f9722a3daafe3b4186f6b6457e090600090a35050565b80516001600160a01b03811681146200015157600080fd5b919050565b600080604083850312156200016a57600080fd5b620001758362000139565b9150620001856020840162000139565b90509250929050565b634e487b7160e01b600052604160045260246000fd5b600181811c90821680620001b957607f821691505b602082108103620001da57634e487b7160e01b600052602260045260246000fd5b50919050565b601f8211156200022e57600081815260208120601f850160051c81016020861015620002095750805b601f850160051c820191505b818110156200022a5782815560010162000215565b5050505b505050565b81516001600160401b038111156200024f576200024f6200018e565b6200026781620002608454620001a4565b84620001e0565b602080601f8311600181146200029f5760008415620002865750858301515b600019600386901b1c1916600185901b1785556200022a565b600085815260208120601f198616915b82811015620002d057888601518255948401946001909101908401620002af565b5085821015620002ef5787850151600019600388901b60f8161c191681555b5050505050600190811b01905550565b608051611eca620003306000396000818161024b0152818161060d01528181610ab70152610b7e0152611eca6000f3fe608060405234801561001057600080fd5b50600436106101c45760003560e01c80637960bf71116100f9578063b88d4fde11610097578063d8fc063d11610071578063d8fc063d146103ca578063e985e9c5146103d2578063f2fde38b146103e5578063f616987a146103f857600080fd5b8063b88d4fde14610384578063c87b56dd14610397578063d5189214146103aa57600080fd5b806395d89b41116100d357806395d89b411461034e578063a0b70f3c14610356578063a22cb4651461035e578063b29accf61461037157600080fd5b80637960bf71146103125780638da5cb5b1461031a5780638e94a4591461032b57600080fd5b80631f7e8ae6116101665780635f1c0ebb116101405780635f1c0ebb146102d15780636352211e146102e457806370a08231146102f7578063715018a61461030a57600080fd5b80631f7e8ae6146102a357806323b872dd146102ab57806342842e0e146102be57600080fd5b8063095ea7b3116101a2578063095ea7b31461023157806311eac855146102465780631272d3fb1461026d57806315c108db1461027557600080fd5b806301ffc9a7146101c957806306fdde03146101f1578063081812fc14610206575b600080fd5b6101dc6101d7366004611857565b610402565b60405190151581526020015b60405180910390f35b6101f9610413565b6040516101e891906118c4565b6102196102143660046118d7565b6104a5565b6040516001600160a01b0390911681526020016101e8565b61024461023f36600461190c565b6104cc565b005b6102197f000000000000000000000000000000000000000000000000000000000000000081565b6102446105e6565b610295610283366004611936565b60096020526000908152604090205481565b6040519081526020016101e8565b610295601e81565b6102446102b9366004611951565b61071e565b6102446102cc366004611951565b61074f565b6102446102df36600461198d565b61076a565b6102196102f23660046118d7565b610829565b610295610305366004611936565b610889565b61024461090f565b610295600381565b6007546001600160a01b0316610219565b6101dc610339366004611936565b600b6020526000908152604090205460ff1681565b6101f9610923565b610244610932565b61024461036c366004611a0d565b6109d2565b61024461037f36600461198d565b6109dd565b610244610392366004611a5a565b610a54565b6101f96103a53660046118d7565b610a8c565b6102956103b8366004611936565b600a6020526000908152604090205481565b610244610a97565b6101dc6103e0366004611b36565b610c2e565b6102446103f3366004611936565b610c5c565b610295621e848081565b600061040d82610cd5565b92915050565b60606000805461042290611b69565b80601f016020809104026020016040519081016040528092919081815260200182805461044e90611b69565b801561049b5780601f106104705761010080835404028352916020019161049b565b820191906000526020600020905b81548152906001019060200180831161047e57829003601f168201915b5050505050905090565b60006104b082610cfa565b506000908152600460205260409020546001600160a01b031690565b60006104d782610829565b9050806001600160a01b0316836001600160a01b0316036105495760405162461bcd60e51b815260206004820152602160248201527f4552433732313a20617070726f76616c20746f2063757272656e74206f776e656044820152603960f91b60648201526084015b60405180910390fd5b336001600160a01b038216148061056557506105658133610c2e565b6105d75760405162461bcd60e51b815260206004820152603d60248201527f4552433732313a20617070726f76652063616c6c6572206973206e6f7420746f60448201527f6b656e206f776e6572206f7220617070726f76656420666f7220616c6c0000006064820152608401610540565b6105e18383610d59565b505050565b6040516323b872dd60e01b8152336004820152306024820152621e848060448201526000907f00000000000000000000000000000000000000000000000000000000000000006001600160a01b0316906323b872dd906064016020604051808303816000875af115801561065e573d6000803e3d6000fd5b505050506040513d601f19601f820116820180604052508101906106829190611ba3565b9050806106d15760405162461bcd60e51b815260206004820152601a60248201527f4957543a2055534443207472616e73666572206661696c65642e0000000000006044820152606401610540565b3360009081526009602052604081208054601e92906106f1908490611bd6565b9091555050336000908152600a60205260408120805460039290610716908490611bd6565b909155505050565b6107283382610dc7565b6107445760405162461bcd60e51b815260040161054090611be9565b6105e1838383610e26565b6105e183838360405180602001604052806000815250610a54565b336000908152600960205260409020546107c65760405162461bcd60e51b815260206004820181905260248201527f4957543a204e6f2070686f746f20637265646974732072656d61696e696e672e6044820152606401610540565b3360009081526009602052604081208054916107e183611c36565b919050555061082582828080601f016020809104026020016040519081016040528093929190818152602001838380828437600092019190915250610f8a92505050565b5050565b6000818152600260205260408120546001600160a01b03168061040d5760405162461bcd60e51b8152602060048201526018602482015277115490cdcc8c4e881a5b9d985b1a59081d1bdad95b88125160421b6044820152606401610540565b60006001600160a01b0382166108f35760405162461bcd60e51b815260206004820152602960248201527f4552433732313a2061646472657373207a65726f206973206e6f7420612076616044820152683634b21037bbb732b960b91b6064820152608401610540565b506001600160a01b031660009081526003602052604090205490565b610917610fb9565b6109216000611013565b565b60606001805461042290611b69565b336000908152600b602052604090205460ff161561099d5760405162461bcd60e51b815260206004820152602260248201527f4957543a2046726565207061636b61676520616c726561647920636c61696d65604482015261321760f11b6064820152608401610540565b336000908152600b60209081526040808320805460ff1916600117905560098252808320601e9055600a909152902060039055565b610825338383611065565b336000908152600a6020526040902054610a395760405162461bcd60e51b815260206004820181905260248201527f4957543a204e6f20766964656f20637265646974732072656d61696e696e672e6044820152606401610540565b336000908152600a602052604081208054916107e183611c36565b610a5e3383610dc7565b610a7a5760405162461bcd60e51b815260040161054090611be9565b610a8684848484611133565b50505050565b606061040d82611166565b610a9f610fb9565b6040516370a0823160e01b81523060048201526000907f00000000000000000000000000000000000000000000000000000000000000006001600160a01b0316906370a0823190602401602060405180830381865afa158015610b06573d6000803e3d6000fd5b505050506040513d601f19601f82011682018060405250810190610b2a9190611c4d565b905060008111610b7c5760405162461bcd60e51b815260206004820152601a60248201527f4957543a204e6f2066756e647320746f2077697468647261772e0000000000006044820152606401610540565b7f00000000000000000000000000000000000000000000000000000000000000006001600160a01b031663a9059cbb610bbd6007546001600160a01b031690565b6040516001600160e01b031960e084901b1681526001600160a01b039091166004820152602481018490526044016020604051808303816000875af1158015610c0a573d6000803e3d6000fd5b505050506040513d601f19601f820116820180604052508101906108259190611ba3565b6001600160a01b03918216600090815260056020908152604080832093909416825291909152205460ff1690565b610c64610fb9565b6001600160a01b038116610cc95760405162461bcd60e51b815260206004820152602660248201527f4f776e61626c653a206e6577206f776e657220697320746865207a65726f206160448201526564647265737360d01b6064820152608401610540565b610cd281611013565b50565b60006001600160e01b03198216632483248360e11b148061040d575061040d8261126e565b6000818152600260205260409020546001600160a01b0316610cd25760405162461bcd60e51b8152602060048201526018602482015277115490cdcc8c4e881a5b9d985b1a59081d1bdad95b88125160421b6044820152606401610540565b600081815260046020526040902080546001600160a01b0319166001600160a01b0384169081179091558190610d8e82610829565b6001600160a01b03167f8c5be1e5ebec7d5bd14f71427d1e84f3dd0314c0f7b2291e5b200ac8c7c3b92560405160405180910390a45050565b600080610dd383610829565b9050806001600160a01b0316846001600160a01b03161480610dfa5750610dfa8185610c2e565b80610e1e5750836001600160a01b0316610e13846104a5565b6001600160a01b0316145b949350505050565b826001600160a01b0316610e3982610829565b6001600160a01b031614610e5f5760405162461bcd60e51b815260040161054090611c66565b6001600160a01b038216610ec15760405162461bcd60e51b8152602060048201526024808201527f4552433732313a207472616e7366657220746f20746865207a65726f206164646044820152637265737360e01b6064820152608401610540565b826001600160a01b0316610ed482610829565b6001600160a01b031614610efa5760405162461bcd60e51b815260040161054090611c66565b600081815260046020908152604080832080546001600160a01b03199081169091556001600160a01b0387811680865260038552838620805460001901905590871680865283862080546001019055868652600290945282852080549092168417909155905184937fddf252ad1be2c89b69c2b068fc378daa952ba7f163c4a11628f55a4df523b3ef91a4505050565b610f98600880546001019055565b6000610fa360085490565b9050610faf33826112be565b61082581836112d8565b6007546001600160a01b031633146109215760405162461bcd60e51b815260206004820181905260248201527f4f776e61626c653a2063616c6c6572206973206e6f7420746865206f776e65726044820152606401610540565b600780546001600160a01b038381166001600160a01b0319831681179093556040519116919082907f8be0079c531659141344cd1fd0a4f28419497f9722a3daafe3b4186f6b6457e090600090a35050565b816001600160a01b0316836001600160a01b0316036110c65760405162461bcd60e51b815260206004820152601960248201527f4552433732313a20617070726f766520746f2063616c6c6572000000000000006044820152606401610540565b6001600160a01b03838116600081815260056020908152604080832094871680845294825291829020805460ff191686151590811790915591519182527f17307eab39ab6107e8899845ad3d59bd9653f200f220920489ca2b5937696c31910160405180910390a3505050565b61113e848484610e26565b61114a848484846113a3565b610a865760405162461bcd60e51b815260040161054090611cab565b606061117182610cfa565b6000828152600660205260408120805461118a90611b69565b80601f01602080910402602001604051908101604052809291908181526020018280546111b690611b69565b80156112035780601f106111d857610100808354040283529160200191611203565b820191906000526020600020905b8154815290600101906020018083116111e657829003601f168201915b50505050509050600061122160408051602081019091526000815290565b90508051600003611233575092915050565b81511561126557808260405160200161124d929190611cfd565b60405160208183030381529060405292505050919050565b610e1e846114a4565b60006001600160e01b031982166380ac58cd60e01b148061129f57506001600160e01b03198216635b5e139f60e01b145b8061040d57506301ffc9a760e01b6001600160e01b031983161461040d565b610825828260405180602001604052806000815250611518565b6000828152600260205260409020546001600160a01b03166113535760405162461bcd60e51b815260206004820152602e60248201527f45524337323155524953746f726167653a2055524920736574206f66206e6f6e60448201526d32bc34b9ba32b73a103a37b5b2b760911b6064820152608401610540565b600082815260066020526040902061136b8282611d7a565b506040518281527ff8e1a15aba9398e019f0b49df1a4fde98ee17ae345cb5f6b5e2c27f5033e8ce79060200160405180910390a15050565b60006001600160a01b0384163b1561149957604051630a85bd0160e11b81526001600160a01b0385169063150b7a02906113e7903390899088908890600401611e3a565b6020604051808303816000875af1925050508015611422575060408051601f3d908101601f1916820190925261141f91810190611e77565b60015b61147f573d808015611450576040519150601f19603f3d011682016040523d82523d6000602084013e611455565b606091505b5080516000036114775760405162461bcd60e51b815260040161054090611cab565b805181602001fd5b6001600160e01b031916630a85bd0160e11b149050610e1e565b506001949350505050565b60606114af82610cfa565b60006114c660408051602081019091526000815290565b905060008151116114e65760405180602001604052806000815250611511565b806114f08461154b565b604051602001611501929190611cfd565b6040516020818303038152906040525b9392505050565b61152283836115de565b61152f60008484846113a3565b6105e15760405162461bcd60e51b815260040161054090611cab565b6060600061155883611769565b600101905060008167ffffffffffffffff81111561157857611578611a44565b6040519080825280601f01601f1916602001820160405280156115a2576020820181803683370190505b5090508181016020015b600019016f181899199a1a9b1b9c1cb0b131b232b360811b600a86061a8153600a85049450846115ac57509392505050565b6001600160a01b0382166116345760405162461bcd60e51b815260206004820181905260248201527f4552433732313a206d696e7420746f20746865207a65726f20616464726573736044820152606401610540565b6000818152600260205260409020546001600160a01b0316156116995760405162461bcd60e51b815260206004820152601c60248201527f4552433732313a20746f6b656e20616c7265616479206d696e746564000000006044820152606401610540565b6000818152600260205260409020546001600160a01b0316156116fe5760405162461bcd60e51b815260206004820152601c60248201527f4552433732313a20746f6b656e20616c7265616479206d696e746564000000006044820152606401610540565b6001600160a01b038216600081815260036020908152604080832080546001019055848352600290915280822080546001600160a01b0319168417905551839291907fddf252ad1be2c89b69c2b068fc378daa952ba7f163c4a11628f55a4df523b3ef908290a45050565b60008072184f03e93ff9f4daa797ed6e38ed64bf6a1f0160401b83106117a85772184f03e93ff9f4daa797ed6e38ed64bf6a1f0160401b830492506040015b6d04ee2d6d415b85acef810000000083106117d4576d04ee2d6d415b85acef8100000000830492506020015b662386f26fc1000083106117f257662386f26fc10000830492506010015b6305f5e100831061180a576305f5e100830492506008015b612710831061181e57612710830492506004015b60648310611830576064830492506002015b600a831061040d5760010192915050565b6001600160e01b031981168114610cd257600080fd5b60006020828403121561186957600080fd5b813561151181611841565b60005b8381101561188f578181015183820152602001611877565b50506000910152565b600081518084526118b0816020860160208601611874565b601f01601f19169290920160200192915050565b6020815260006115116020830184611898565b6000602082840312156118e957600080fd5b5035919050565b80356001600160a01b038116811461190757600080fd5b919050565b6000806040838503121561191f57600080fd5b611928836118f0565b946020939093013593505050565b60006020828403121561194857600080fd5b611511826118f0565b60008060006060848603121561196657600080fd5b61196f846118f0565b925061197d602085016118f0565b9150604084013590509250925092565b600080602083850312156119a057600080fd5b823567ffffffffffffffff808211156119b857600080fd5b818501915085601f8301126119cc57600080fd5b8135818111156119db57600080fd5b8660208285010111156119ed57600080fd5b60209290920196919550909350505050565b8015158114610cd257600080fd5b60008060408385031215611a2057600080fd5b611a29836118f0565b91506020830135611a39816119ff565b809150509250929050565b634e487b7160e01b600052604160045260246000fd5b60008060008060808587031215611a7057600080fd5b611a79856118f0565b9350611a87602086016118f0565b925060408501359150606085013567ffffffffffffffff80821115611aab57600080fd5b818701915087601f830112611abf57600080fd5b813581811115611ad157611ad1611a44565b604051601f8201601f19908116603f01168101908382118183101715611af957611af9611a44565b816040528281528a6020848701011115611b1257600080fd5b82602086016020830137600060208483010152809550505050505092959194509250565b60008060408385031215611b4957600080fd5b611b52836118f0565b9150611b60602084016118f0565b90509250929050565b600181811c90821680611b7d57607f821691505b602082108103611b9d57634e487b7160e01b600052602260045260246000fd5b50919050565b600060208284031215611bb557600080fd5b8151611511816119ff565b634e487b7160e01b600052601160045260246000fd5b8082018082111561040d5761040d611bc0565b6020808252602d908201527f4552433732313a2063616c6c6572206973206e6f7420746f6b656e206f776e6560408201526c1c881bdc88185c1c1c9bdd9959609a1b606082015260800190565b600081611c4557611c45611bc0565b506000190190565b600060208284031215611c5f57600080fd5b5051919050565b60208082526025908201527f4552433732313a207472616e736665722066726f6d20696e636f72726563742060408201526437bbb732b960d91b606082015260800190565b60208082526032908201527f4552433732313a207472616e7366657220746f206e6f6e20455243373231526560408201527131b2b4bb32b91034b6b83632b6b2b73a32b960711b606082015260800190565b60008351611d0f818460208801611874565b835190830190611d23818360208801611874565b01949350505050565b601f8211156105e157600081815260208120601f850160051c81016020861015611d535750805b601f850160051c820191505b81811015611d7257828155600101611d5f565b505050505050565b815167ffffffffffffffff811115611d9457611d94611a44565b611da881611da28454611b69565b84611d2c565b602080601f831160018114611ddd5760008415611dc55750858301515b600019600386901b1c1916600185901b178555611d72565b600085815260208120601f198616915b82811015611e0c57888601518255948401946001909101908401611ded565b5085821015611e2a5787850151600019600388901b60f8161c191681555b5050505050600190811b01905550565b6001600160a01b0385811682528416602082015260408101839052608060608201819052600090611e6d90830184611898565b9695505050505050565b600060208284031215611e8957600080fd5b81516115118161184156fea26469706673582212201883b6e73e94a0aa2fbdf2fc3246c176a4bdc817f9fda27fefb723c6e1adf82064736f6c63430008140033",
  "linkReferences": {},
  "deployedLinkReferences": {}
}